:100000000C945E000C9486000C9486000C94860080
:100010000C9486000C9486000C9486000C94860048
:100020000C9486000C9486000C9486000C94860038
:100030000C9486000C9486000C9486000C94860028
:100040000C94C4020C9486000C9492020C946C02E2
:100050000C9486000C9486000C9486000C94860008
:100060000C9486000C948600000000080002010039
:100070000003040700000000000000000000000072
:10008000250028002B0000000000240027002A0083
:10009000040404040404040402020202020203032E
:1000A0000303030301020408102040800102040836
:1000B00010200102040810200E03110511241FBE98
:1000C000CFEFD8E0DEBFCDBF22E0A0EAB1E001C0B3
:1000D0001D92A035B207E1F711E0A0E0B1E0EEEB30
:1000E000FEE002C005900D92A03AB107D9F710E0EA
:1000F000CDE5D0E004C02197FE010E945105CC352A
:10010000D107C9F70E9482030C9452070C94000097
:1001100090E0FC01EC55FF4F249180579F4FFC016C
:100120008491882399F090E0880F991FFC01EA5789
:10013000FF4FA591B491FC01E458FF4F8591949134
:100140008FB7F894EC91E22BEC938FBF0895AF92A8
:10015000BF92CF92DF92EF92FF920F931F93CF93B4
:10016000DF936C017B018B01040F151FEB015E0116
:10017000AE18BF08C017D10759F06991D601ED91AB
:10018000FC910190F081E02DC6010995892B79F74A
:10019000C501DF91CF911F910F91FF90EF90DF90FC
:1001A000CF90BF90AF900895FC01538D448D252FC3
:1001B00030E0842F90E0821B930B541710F0CF9601
:1001C000089501970895FC01918D828D981761F033
:1001D000A28DAE0FBF2FB11D5D968C91928D9F5F4A
:1001E0009F73928F90E008958FEF9FEF0895FC0129
:1001F000918D828D981731F0828DE80FF11D858DDC
:1002000090E008958FEF9FEF0895FC01918D228D6E
:10021000892F90E0805C9F4F821B91098F739927F3
:10022000089589EA91E00E94050121E0892B09F4F3
:1002300020E0822F089580E090E0892B29F00E9431
:10024000110181110C9400000895FC01A48DA80FE8
:10025000B92FB11DA35ABF4F2C91848D90E0019608
:100260008F739927848FA689B7892C93A089B18928
:100270008C91837080648C93938D848D981306C0C9
:100280000288F389E02D80818F7D80830895EF922D
:10029000FF920F931F93CF93DF93EC0181E0888F40
:1002A0009B8D8C8D98131AC0E889F989808185FF10
:1002B00015C09FB7F894EE89FF896083E889F989B2
:1002C00080818370806480839FBF81E090E0DF91B4
:1002D000CF911F910F91FF90EF900895F62E0B8D07
:1002E00010E00F5F1F4F0F731127E02E8C8D8E11C2
:1002F0000CC00FB607FCFACFE889F989808185FF29
:10030000F5CFCE010E942501F1CFEB8DEC0FFD2F33
:10031000F11DE35AFF4FF0829FB7F8940B8FEA89E3
:10032000FB8980818062CFCFCF93DF93EC01888DF2
:100330008823B9F0AA89BB89E889F9898C9185FD60
:1003400003C0808186FD0DC00FB607FCF7CF8C91EE
:1003500085FFF2CF808185FFEDCFCE010E94250180
:10036000E9CFDF91CF91089590E0FC01E859FF4F6C
:100370002491FC01EC55FF4F3491FC01E057FF4FF5
:10038000E491EE23C9F0222339F0233001F1A8F4DF
:10039000213019F1223029F1F0E0EE0FFF1FE4586F
:1003A000FF4FA591B4918FB7F894EC91611126C0DD
:1003B00030953E233C938FBF08952730A9F0283015
:1003C000C9F0243049F7809180008F7D03C080916F
:1003D00080008F7780938000DFCF84B58F7784BDD6
:1003E000DBCF84B58F7DFBCF8091B0008F7780937A
:1003F000B000D2CF8091B0008F7DF9CF3E2BDACF05
:100400003FB7F8948091A5019091A601A091A70112
:10041000B091A80126B5A89B05C02F3F19F0019601
:10042000A11DB11D3FBFBA2FA92F982F8827BC014E
:10043000CD01620F711D811D911D42E0660F771F76
:10044000881F991F4A95D1F7089520914A0230914B
:100450004B02232B39F421E0FC018081882361F0D9
:1004600020E00AC0BC0180914602909147020E94A0
:10047000420721E0892BA1F7822F0895CF93DF93C4
:10048000EC018091460290914702009759F020912B
:100490004802309149022C173D0720F081E0DF919E
:1004A000CF910895BE016F5F7F4F0E947C06009739
:1004B00089F09093470280934602D0934902C093FB
:1004C000480220914A0230914B02232B39F7FC015C
:1004D0001082E4CF80E0E3CF1F920F920FB60F920D
:1004E00011242F933F934F935F936F937F938F9339
:1004F0009F93AF93BF93EF93FF9389EA91E00E949C
:100500002501FF91EF91BF91AF919F918F917F91C5
:100510006F915F914F913F912F910F900FBE0F9070
:100520001F9018951F920F920FB60F9211242F93C0
:100530008F939F93EF93FF93E091B901F091BA01EC
:100540008081E091BF01F091C00182FD1BC09081CC
:100550008091C2018F5F8F732091C301821741F098
:10056000E091C201F0E0E755FE4F958F8093C20104
:10057000FF91EF919F918F912F910F900FBE0F9050
:100580001F9018958081F4CF1F920F920FB60F9293
:1005900011242F933F938F939F93AF93BF93809199
:1005A000A1019091A201A091A301B091A401309169
:1005B000A00123E0230F2D3758F50196A11DB11D91
:1005C0002093A0018093A1019093A201A093A30185
:1005D000B093A4018091A5019091A601A091A701DB
:1005E000B091A8010196A11DB11D8093A501909322
:1005F000A601A093A701B093A801BF91AF919F91CD
:100600008F913F912F910F900FBE0F901F901895D3
:1006100026E8230F0296A11DB11DD2CF1092AC0186
:100620001092AB0188EE93E0A0E0B0E08093AD01C2
:100630009093AE01A093AF01B093B0018AE091E036
:100640009093AA018093A90185EC90E09093B60164
:100650008093B50184EC90E09093B8018093B7014A
:1006600080EC90E09093BA018093B90181EC90E026
:100670009093BC018093BB0182EC90E09093BE010B
:100680008093BD0186EC90E09093C0018093BF0100
:100690001092C2011092C3011092C4011092C501C0
:1006A000109247021092460210924902109248029C
:1006B00010924B0210924A0290E080E00E943E02AB
:1006C0002091460230914702811113C02115310556
:1006D00019F0C9010E94F3051092470210924602D8
:1006E00010924B0210924A02109249021092480254
:1006F000089510924B0210924A026AE171E0C9011A
:100700000C944B07CF93DF9300D0CDB7DEB778942E
:1007100084B5826084BD84B5816084BD85B5826006
:1007200085BD85B5816085BD80916E0081608093B7
:100730006E00109281008091810082608093810020
:100740008091810081608093810080918000816030
:10075000809380008091B10084608093B10080918B
:10076000B00081608093B00080917A0084608093B3
:100770007A0080917A00826080937A0080917A007A
:10078000816080937A0080917A00806880937A00FB
:100790001092C100E091B901F091BA0182E080832A
:1007A000E091B501F091B6011082E091B701F091AE
:1007B000B8018FEC80831092C101E091BD01F091EE
:1007C000BE0186E08083E091BB01F091BC01808195
:1007D00080618083E091BB01F091BC0180818860E1
:1007E0008083E091BB01F091BC01808180688083AF
:1007F000E091BB01F091BC0180818F7D808386E018
:100800000E94880085E00E94880084E00E948800A1
:1008100083E00E94880090E0E92E90E0F92E89EABA
:1008200091E00E940501892B09F449C00E94000251
:100830002B013C0183E0882E912CA12CB12C0E942D
:1008400000026419750986099709683E734081059D
:100850009105A8F321E0821A9108A108B10888EE59
:10086000480E83E0581E611C711C81149104A10480
:10087000B10429F789EA91E00E94E30089831A8292
:1008800000914A0210914B020F5F1F4FC8010E9456
:100890003E02882321F22091460230914702809146
:1008A0004A0290914B02BE016F5F7F4F820F931FF0
:1008B0000E944B0710934B0200934A02B0CF409125
:1008C0004A0250914B0241155105E9F160914602EF
:1008D0007091470289EA91E00E94A70042E050E04F
:1008E00068E171E089EA91E00E94A7008BE191E064
:1008F0000E94250261E0811107C089E291E00E9417
:100900002502882361F160E086E00E94B40190E056
:1009100080E00E943E022091460230914702811100
:1009200076C02115310519F0C9010E94F305109216
:1009300047021092460210924B0210924A02109205
:10094000490210924802E114F10409F468CF0E94B0
:100950001101882309F463CF0E94000060CF88E36F
:1009600091E00E94250261E0811107C084E491E0DA
:100970000E942502882319F060E085E0C6CF81E55A
:1009800091E00E94250261E0811107C08CE591E0B1
:100990000E942502882319F060E084E0B6CF88E643
:1009A00091E00E942502882319F061E083E0ADCF39
:1009B00087E791E00E942502882311F060E0F6CFDE
:1009C00087E891E00E942502882369F061E086E0D3
:1009D0000E94B40161E085E00E94B40161E084E01E
:1009E0000E94B401E2CF83E991E00E9425028823AE
:1009F00009F48DCF60E086E00E94B40160E085E0FC
:100A00000E94B40160E084E00E94B401D7CF10924C
:100A10004B0210924A026AE171E0C9010E944B0741
:100A200092CF8091460290914702009711F00C946A
:100A3000F30508952F923F924F925F926F927F92AB
:100A40008F929F92AF92BF92CF92DF92EF92FF92DE
:100A50000F931F93CF93DF93CDB7DEB7CA1BDB0B8A
:100A60000FB6F894DEBF0FBECDBF09942A8839882F
:100A700048885F846E847D848C849B84AA84B98436
:100A8000C884DF80EE80FD800C811B81AA81B98142
:100A9000CE0FD11D0FB6F894DEBF0FBECDBFED0156
:100AA0000895EE0FFF1F0590F491E02D09940F9328
:100AB0001F93CF93DF938230910510F482E090E092
:100AC000E0914E02F0914F0230E020E0B0E0A0E073
:100AD000309799F42115310509F44AC0281B390BC8
:100AE00024303105D8F58A819B816115710589F122
:100AF000FB0193838283FE0111C0408151810281F9
:100B0000138148175907E0F04817590799F41097CF
:100B100061F012960C93129713961C933296CF01A4
:100B2000DF91CF911F910F91089500934E02109382
:100B30004F02F4CF2115310551F04217530738F019
:100B4000A901DB019A01BD01DF01F801C1CFEF016D
:100B5000F9CF90934F0280934E02CDCFFE01E20F6A
:100B6000F31F819391932250310939832883D7CF82
:100B700020914C0230914D02232B41F4209102012F
:100B80003091030130934D0220934C0220910001DB
:100B9000309101012115310541F42DB73EB7409147
:100BA000040150910501241B350BE0914C02F0919A
:100BB0004D02E217F307A0F42E1B3F0B281739074D
:100BC00078F0AC014E5F5F4F2417350748F04E0FA9
:100BD0005F1F50934D0240934C02819391939FCF9E
:100BE000F0E0E0E09CCFCF93DF930097E9F0FC01C9
:100BF000329713821282A0914E02B0914F02ED0102
:100C000030E020E01097A1F420813181820F931F02
:100C100020914C0230914D022817390709F061C02C
:100C2000F0934D02E0934C02DF91CF910895EA01D9
:100C3000CE17DF07E8F54A815B819E01411551051A
:100C4000B1F7E901FB83EA8349915991C40FD51F9C
:100C5000EC17FD0761F4808191810296840F951F46
:100C6000E90199838883828193819B838A83F0E061
:100C7000E0E012968D919C9113970097B9F52D9114
:100C80003C911197CD010296820F931F20914C0247
:100C900030914D022817390739F6309751F51092E7
:100CA0004F0210924E02B0934D02A0934C02BCCF63
:100CB000D383C28340815181840F951FC817D90700
:100CC00061F44E5F5F4F88819981480F591F5183AE
:100CD00040838A819B81938382832115310509F0AA
:100CE000B0CFF0934F02E0934E029ECFFD01DC01A6
:100CF000C0CF13821282D7CFB0E0A0E0E2E8F6E0E6
:100D00000C941C058C01009751F4CB010E945705EF
:100D10008C01C801CDB7DEB7E0E10C943805FC01C9
:100D2000E60FF71F9C0122503109E217F30708F480
:100D30009DC0D901CD91DC911197C617D70798F0C6
:100D4000C530D10530F3CE0104978617970708F315
:100D5000C61BD70B2297C193D1936D937C93CF0180
:100D60000E94F305D6CF5B01AC1ABD0A4C018C0E74
:100D70009D1EA0914E02B0914F02512C412CF12C9E
:100D8000E12C109731F580914C0290914D0288151D
:100D9000990509F05CC04616570608F058C08091C6
:100DA000000190910101009741F48DB79EB74091E9
:100DB000040150910501841B950BE817F90708F011
:100DC00055C0F0934D02E0934C02F90171836083AA
:100DD000A0CF8D919C91119712966C9012971396BB
:100DE0007C901397A815B90559F56C0142E0C40E23
:100DF000D11CCA14DB0420F1AC014A195B09DA01E9
:100E00001296159780F06282738251834083D901D4
:100E10006D937C93E114F10471F0D7011396FC9368
:100E2000EE93129776CF22968C0F9D1FF901918336
:100E30008083F301EFCFF0934F02E0934E0269CF2E
:100E40004816590608F42C017D01D3019ACFCB0135
:100E50000E9457057C01009749F0AE01B8010E943D
:100E60003907C8010E94F305870153CF10E000E065
:100E700050CFFB01DC0102C001900D924150504067
:100E8000D8F70895FB01DC018D91019080190110C4
:100E9000D9F3990B0895FB01DC0101900D9200201C
:100EA000E1F7089510E0CDE5D0E004C0FE010E9416
:0E0EB00051052196CE35D107C9F7F894FFCF32
:100EBE00000050028000000000004701A700D4008F
:100ECE0094010501E300F7000D0A007475726E209F
:100EDE006F6E206C69676874007475726E206F6631
:100EEE0066206C69676874007475726E206F6E2070
:100EFE0066616E007475726E206F66662066616E36
:100F0E00007475726E206F6E204143007475726EA0
:100F1E00206F6666204143007475726E206F6E20DE
:100F2E00686561746572007475726E206F666620F6
:100F3E00686561746572007475726E206F6E2061E3
:100F4E006C6C007475726E206F666620616C6C003E
:00000001FF
